:100000000C94B0040C94D9040C94D9040C94D90425
:100010000C94D9040C94D9040C944E200C94D9045B
:100020000C94D9040C94D9040C94D9040C94C41DD8
:100030000C94D9040C94D9040C94D9040C94D904CC
:100040000C94D9040C94D9040C9459200C947C2061
:100050000C94D9040C94D9040C94D9040C94D904AC
:100060000C94D9040C94D904040002000004020783
:10007000040000020200000002040000040002026A
:10008000040404040400000400040404040404043C
:10009000000400020304000004040004040004003F
:1000A0000400000400040404040002040400040426
:1000B0000104040400040004020000000000000029
:1000C000060002021011121314152223000023004F
:1000D000260029002C0078DA9D570B4F1B3910FEA3
:1000E0002BBE95AA7B88A26493149A537582402BE9
:1000F000D4425302C749A7CA32BB4E62B1AFDA5EDF
:100100000257F1DFEF1B7BD7BB84DC9D7448286B63
:10011000CF783C8F6F1EFE1E89AA8AA6D1C74C5588
:1001200095D4D15E745BAB2CE5F7521B551606A433
:1001300055924CD94F1F66B39FD970BC1FEF0FD893
:10014000AD2A6AAB3243DB17D7ECB859FECCE2FDDF
:10015000F108229232CF4591E2F0F74864599908AC
:100160002B79A952C392B22EECBB5749343D045BA4
:100170002685E6665DDBB4DC14D134A693C552ADAA
:10018000B8284456AEB82A184E819D55AA78F7AAC9
:1001900006CB61E049D54A5991F1B2B6CFB9D8BD85
:1001A000C86A49EB542E459D591E3672F1C0D35A88
:1001B0000B0BD39CBCE128C89350D896D53359F883
:1001C000A9B38CD79553397E13980B5956EA4166DB
:1001D0005B37A7C20A6ED45FB86C5DC34D96D38DF2
:1001E00056257786C85A1A892D5584AD683A1A075C
:1001F000A1D526DF614DF2083F75321A5B207ECB18
:100200003AECBC306F340CC28D9514E056382D7921
:100210006363AA74FBA90A04DE3AE68EABCE8CECCB
:10022000691C773EB3DA3C16492313DE3CD88B6455
:100230002EF54A16C923276F42056C79CFF27599BE
:10024000CBF6FE04A8B8237B8CC8ABBE7DCDBA0527
:100250000AF9CC7654A8D945D3DFCE1B8956ABD545
:100260004A6AAEA530643E056CD25DFEAD969A74C6
:10027000021483BE317CBF54C01A22C6BD492CD1A2
:1002800089B312B15E21584ECF683A69568E279ACB
:100290001EF8655D5995CB680A312A958555CB477F
:1002A000562E9708B20B5CC03AA2D002861B2814C7
:1002B0001418C53D4A5DA59D72AC2A8D8F3220F57C
:1002C000EED52FC8A5115CE9AD78911EFFD39B79BF
:1002D000E7CD063DDD4A8B6285836B99DCF1CE92DA
:1002E000F8C0E950CB5DE917B428FB001F0EDB23F3
:1002F0005BF80EECE152D8386899097A2DA72AAC40
:10030000D4E0EA79151A8A14C4B58252F0A24B2DB2
:100310009C9F349FEEBC8FDEF67D38805B88A76F94
:10032000C356ED88A66F5FF038035C3A0691CF7232
:1003300013B6C6FE50211F1A0D905B2D333EBD0F24
:10034000879EA975C77FE4390E902A3E7D39C10E7C
:10035000D05094E25DDEF5181CD829003E1D58C827
:100360008E5EAEE004EA68B345AA108C7744067C42
:10037000938ECF0A1D38B4AC4ADD6487AF6C6E1D16
:10038000B4970F95D2B29F8BC33741D2966A7D2620
:1003900064924F835DF8EA62331C3CB535887ACCB1
:1003A000D1C98C9F1FFD41FB549C8EAF177C7E767C
:1003B000B1E0A6023AA2F9F1786F7E3CC2FF24EACE
:1003C00011EDC6116793BDF96C0CC2ECD3E7D947A8
:1003D000FEFEF2F40B293B707F7BD1D9C5D9D5D96C
:1003E000D12777C4C92219E7B36B7C0B9BCB951837
:1003F000C58715B6E637E75E857802975D9ECE4ED7
:10040000CF7E3FE5376717279F6F2840316D2E4E0F
:100410002FB1E955935A898C249E0CF6E627438820
:1004200000956E3A3EBA3E41C169EE5F5C1D5D2D9E
:10043000F8E2FA7CF10594C5295DF0E689CA5A8D87
:1004400042EB2ABD6BB32A4EF86DED3E9D61E42070
:10045000008BD6F3E34134FDF370EFF02BD49CD145
:100460003762E11627B44011748B535AA0201D7EC9
:10047000C55178AE15E79C48E2A8762AC281560598
:100480008A4FDA789EB9082D7DC1F04DF228434C91
:10049000D347D6D6D6D437DA992858515A06C4311C
:1004A000532E81FC4DEE61CF1C70D866ADF0ED018E
:1004B0006058854A899B7CBAB6676B43CC307DC84F
:1004C00096A56670FBAFED5A19A2A66EDF6D41FDD1
:1004D000B13FFAA3A56AC18C5A412166D7C212B7AF
:1004E00068D4148955F7D2D79186D9102BE1CED78D
:1004F0002FBFEB0A8B130D4D65C1DA961ACE938D83
:100500007EF46195D00831935A97DAF58B96A02541
:10051000EA9BB16E007A2F606FCA6CC95C57400CC1
:1005200099CB32D43178F1AC00E055CA9A69CA351A
:10053000A16E0F55902E11B9446DF4ADAC25E6E5D2
:10054000BD6CEF61348DF8C46AC9617609D38AAF96
:10055000BB2FE84D430AF7531D6A99E01A661F2B1B
:10056000E96B5EBB4BB0818FEAAA53CDF8A27C2E1B
:100570008D112BC9301994A96CFD022BCF95A1A028
:1005800019749AB4CE106FC212D54FD65400872F6B
:10059000798FF6EA4BE73F1F580B9D3A4CB5DC705C
:1005A000F139F9C27514862FBDCCCA8DAF6A170018
:1005B00093605E6D42B14B161AC6FA04C0CB13C6E7
:1005C000C3E7045554BE72FB1EEE480569DA6D8F11
:1005D0005C510820AB74B9824B72A82EC8B6E552A4
:1005E0006A68099749CA8F117C7B291BA3081304E9
:1005F000605C03B04A38930043C3DC2230BCF00E89
:10060000DBA82C43E14D20EFD924E8FB4377327877
:10061000E85F4E509F5F34833973733A581CE85D2E
:1006200002F747F6459305B62CD952389DBDBE3426
:100630007D5D393388845661A41B07AF0B5357D4B3
:100640002EA487BCAB3323C4EA46D8649D962B6F97
:10065000FC0FF03AC4BBF703E690BAB88378CA1728
:100660003F67F6F64D47E826749FAC659121BFEFD2
:100670004116B7599BB6417BB8851468BA1F948060
:100680005CF74C0995A179BC9068373360C62B9014
:10069000193E3A09C844DADDB4C8511E2C1B65D78F
:1006A0004D91F050A4FEFB848A9AA94416E49588E3
:1006B0009E511FE69FEEE9F504CD2B5475E99F4F3F
:1006C000EDA8F76C747578E7BB06A83179C04D3D8D
:1006D0005D131F875700AA5E33C3BA36EF465DDA53
:1006E0006B5DE2DE48C8131EA62C1F8476887EA6AA
:1006F00003C67964DF4B6DFA333A8E4FBAE198B78F
:10070000A6F5A6643FDFEED3800B0FF77461DBFD27
:10071000A699100F7A2333E4E10514DE347592A014
:10072000CCF86BC1663A00B7E3F16E9187AEB96958
:10073000EBBA0D955EE20B8F551CABF3E6C77CF36D
:10074000EFAADEC0B5358DF9C11D2D733CEE8F4E7D
:100750009DDB121186B39DCF967EE046842CD77028
:10076000D66AB576536247A49EDC3CD381A0DF5E97
:10077000C783783218C5077C100FDEC683D77A325C
:100780001C444F7F03AF745949B30600000D0001AC
:100790000000000000000000000100020102A400AF
:1007A000851302000001000000630803000001003F
:1007B0000000600804000001000000421305000072
:1007C000010000002F130600010001B900750807A1
:1007D00000000100000000130800010001A3004414
:1007E000080900020002A40018070A00020002A67D
:1007F000005F160B00030003A000C2150C000200EE
:10080000029E0093150D000500059900DE140E00F0
:10081000020002A6008A170F000200029E0049177C
:1008200010000400049500E8161100010001A30067
:100830001B0A1200020002A6008F1813000100011B
:10084000A3003E1814000200029E000418150002C6
:100850000002A600D51716000400049100B81B176B
:10086000000500058C007F141800010001A3006240
:100870001919000800088400DF181A00030003811A
:100880000042151B000800087900AA191C0002008C
:10089000029E00F8131D00030003760045201E0091
:1008A000030003A800101A1F00060006700033148E
:1008B0002000010001A300051D21000400036D00BC
:1008C0008C1C22000500056800241F230000010085
:1008D0000000801C24000000050000002F000A0218
:1008E000A6002E001003A8002D001104AB002C0060
:1008F0000D02AF002B001104B1002A001204B50054
:1009000029000B01B90028001002BA0027001503C6
:10091000BC0000004002BF0026000E02C1002500FE
:100920000901C3002400060000001E4700440045E2
:100930000080011D48004400450020010988008016
:1009400000810080000A8A008000810020000BB333
:1009500000B000B10080031BB400B000B100200360
:1009600011241FBECFEFD8E0DEBFCDBF14BE0FB63F
:10097000F894A8958091600088618093600010923F
:1009800060000FBE11E0A0E0B1E0EEE8F2E402C0CA
:1009900005900D92AA32B107D9F722E0AAE2B1E0A0
:1009A00001C01D92AF38B207E1F70E94EF1C0C9412
:1009B00045210C94000010922601EAE1F1E08481C7
:1009C0009581A681B781AC01BD015659674E7F4F15
:1009D00044835583668377839659A74EBF47809398
:1009E000160190931701A0931801B093190181E0AB
:1009F000089580E00895CF93DF93DC018FB7F894DA
:100A0000E0912201F0912301EA17FB0721F42AC0AB
:100A1000EA17FB0789F0EF010190F081E02D309794
:100A2000B9F720912401309125012A173B0781F065
:100A30008FBFDF91CF9108952D913C91119739830C
:100A4000288320912401309125012A173B0781F743
:100A50002AE131E030932501209324018FBFDF91FB
:100A6000CF91089514964D915D916D917C9117975A
:100A700040930E0150930F01609310017093110188
:100A80002D913C91119730930B0120930A012AE09C
:100A900031E03093230120932201C3CFDF92EF9204
:100AA000FF920F931F93CF93DF93C0913301D091A7
:100AB0003401209769F121978E0120E030E0E09029
:100AC0003101F0903201D0903001AD2DB0E020978F
:100AD00039F1C70140E050E0BA014F5F5F4F6F4FFF
:100AE0007F4FFC018A0F9B1F918380834017510722
:100AF0006207730790F3DC9EF001DD9EF00D112478
:100B0000EE0DFF1D11821082F0922F01E0922E0156
:100B1000DF91CF911F910F91FF90EF90DF9008959B
:100B2000F701F0CF0F931F93FC01A489B589868943
:100B30008C9383A191E0892783A3448155816681A9
:100B4000778180FF12C00085118522853385400F93
:100B5000511F621F731F82FD12C044835583668339
:100B6000778381E01F910F9108950485158526856F
:100B70003785400F511F621F731F82FFEECF008920
:100B8000118922893389872F401751076207830B08
:100B900087FDE3CF8DEC98E093838283B901A801B0
:100BA000448355836683778381E01F910F91089575
:100BB0000F931F93CF93DF93EC01162F0FB7F89489
:100BC0008E8980FF24C06F8B8A7F84608E8BAC8976
:100BD000BD891097B9F01296ED91FC9113978D9104
:100BE0009C9111979D8B8C8B11961C921E92139643
:100BF0001C921E921297612FCD010995AC89BD8977
:100C0000109749F71092260181E080939A010FBF57
:100C1000DF91CF911F910F9108950897FC01608D8E
:100C20000E94D80580E00895FC0186898460868B47
:100C30001092260181E080939A0184819581A6819A
:100C4000B7814089518962897389840F951FA61FD6
:100C5000B71F84839583A683B78381E008950F939C
:100C60001F93CF93DF938C01EC01A897CE010E94D4
:100C7000FB041C821D821E821F821A8A1B8A1C8A08
:100C80001D8A88A199A1AAA1BBA12CA54E855F852B
:100C90006889798924FD04C07695679557954795AD
:100CA000841B950BA60BB70BB7FF07C0B095A0959B
:100CB000909581959F4FAF4FBF4FB095A095909560
:100CC00081959F4FAF4FBF4F88A399A3AAA3BBA302
:100CD0001E861F86188A198A247128602CA7ED8D1C
:100CE000FE8D8F8D9FB7F894228180958223828319
:100CF0009FBF9CA59470EA8DFB8D8C8D2FB7F894C7
:100D0000911529F19281892B82832FBFE8012497C5
:100D1000E881F9813097B1F030912E0120912F01B7
:100D200001C0FC0180819181998388833083218374
:100D3000888199813E2F2F2F009799F7F0932F01EB
:100D4000E0932E01DF91CF911F910F910895928131
:100D500080958923D9CFCF93FC01A085B1859C9143
:100D6000818D22859223911511F08095817080FDEF
:100D700018C0C38DCA9521F1C38F84819581A68146
:100D8000B7814785508961897289840F951FA61F95
:100D9000B71F84839583A683B783C1E08C2FCF913F
:100DA000089588EE96E09383828383899489A58948
:100DB000B68984839583A683B783828D838FEDCF95
:100DC000648D8789908D0E94D8058C2FCF910895CE
:100DD0000F931F93FC01A085B1859C91448155819F
:100DE000668177810385148525853685400F511FDF
:100DF000621F731F818D22859223911511F08095BA
:100E0000817080FF08C0448355836683778381E0C7
:100E10001F910F910895438B548B658B768B8BEAD2
:100E200096E093838283CF011F910F910C94AB06C0
:100E3000FC01648180810C94EC1EF894682F70E0B2
:100E400086E792E00E94EC2084E00E941D07BF929A
:100E5000CF92DF92EF92FF920F931F93CF93DF9386
:100E60008C01DC011496CD90DD90ED90FC901797ED
:100E7000BFB6F894C0912201D09123019F2D4C81DF
:100E80005D816E817F818F2DC416D506E606870BA6
:100E900087FD1FC0FE010990D881C02D4C815D8166
:100EA0006E817F81892FC416D506E606870B87FFE2
:100EB000F1CFD801CD93DC9311830083BFBEDF91C6
:100EC000CF911F910F91FF90EF90DF90CF90BF9047
:100ED00008950E94F21C2F2DC616D706E806290B8E
:100EE00027FD25C0B1E0CA30DB0741F1F801D1830D
:100EF000C083C0920E01D0920F01E0921001F092D7
:100F0000110110930B0100930A018AE091E0909384
:100F10002301809322018091840090918500C296E4
:100F2000909389008093880082E086BBC7CF809130
:100F300028018111D7CF83E00E941D070990D88135
:100F4000C02DD4CF0F931F93CF93DF93FC01A189C2
:100F5000B2898D919C911197928B818B16968D9170
:100F60009C911797C085D1852285211519F1888319
:100F700020912E0130912F0111963C932E93B09326
:100F80002F01A0932E01A189B2892785308910975E
:100F900079F58217930741F083859485A585B685F9
:100FA0000097A105B10571F480E0DF91CF911F9109
:100FB0000F9108952FB7F894AC01552759834883B2
:100FC0002FBFD6CF4481558166817781840F951FCD
:100FD000A61FB71F84839583A683B7838AED9AE003
:100FE0009383828381E0DF91CF911F910F910895C8
:100FF00012964D915D916D917C9115978217930793
:1010000041F083859485A585B6850097A105B10536
:1010100031F4448355836683778381E0E4CF048190
:10102000158126813781800F911FA21FB31F2B2F9F
:1010300084179507A607270B27FFEBCF8BE10E94AC
:101040001D07CF93DF93AC01C0919701D091980118
:101050009E01280F391F8DB79EB781509F4F88275B
:101060009A958217930768F030939801209397011F
:1010700060E070E0CE010E943E21CE01DF91CF9171
:10108000089581E10E941D07CF93FC0180919B018F
:1010900090919C01892B89F4C0818C2F90E0880F5E
:1010A000991F880F991F0E94210890939C0180939B
:1010B0009B01C0939D01CF9108958AE00E941D0776
:1010C00088E00E941D0780912801811529F0823057
:1010D00011F010922801089582E00E941D078FE010
:1010E0000E941D078EE00E941D070F931F93CF9350
:1010F000DF938C01C0913301D0913401209709F026
:1011000049C04091300150E04230B8F1E091970180
:10111000F09198012DB73EB721503F4F22273A95C5
:10112000CF01782F692F840F951F2817390758F1A1
:101130002196C11564E0D607A1F78E1B9F0B0E9474
:101140002108D0933401C0933301909332018093EE
:1011500031010E944E05F80180819181A281B38105
:1011600080932A0190932B01A0932C01B0932D0121
:10117000DF91CF911F910F91089582E0809330010C
:1011800042E050E0C3CF872F962F2097B1F680E141
:101190000E941D078DE00E941D074F925F926F9283
:1011A0007F928F929F92AF92BF92CF92DF92EF92F7
:1011B000FF920F931F93CF93DF93FC01A78DB0A1F4
:1011C000109709F42FC18D919C91119790A3878F4F
:1011D00016964D915D916D917C91199791E0411515
:1011E00051056105710509F4AAC0C489D5898689AC
:1011F0002FB7F8943A81411551056105710509F041
:1012000056C0809583238A832FBF20912E01309171
:101210002F0111963C932E93B0932F01A0932E0192
:10122000C3A12C2F2071A78DB0A131E0452B462BF7
:10123000472B09F030E024FB882780F941E0842720
:10124000381709F47EC04789508D618D728D411524
:1012500051056105710509F474C0C480D580E6802C
:10126000F7804C0D5D1D6E1D7F1D9460109709F079
:101270009BC0292B6A017B01C08AD18AE28AF38A4A
:1012800023A3448355836683778381E0DF91CF91E5
:101290001F910F91FF90EF90DF90CF90BF90AF9094
:1012A0009F908F907F906F905F904F900895832BC9
:1012B0008A832FBF20912E0130912F0111963C93EC
:1012C0002E93B0932F01A0932E01038D148D258DA5
:1012D000368D401751076207730708F0A1CFA78D1D
:1012E000B0A18788908CA18CB28C81149104A10448
:1012F000B10491F1C480D580E680F7808C0C9D1CF0
:10130000AE1CBF1C109709F07AC0808A918AA28A0D
:10131000B38A83A18071876083A3DB01CA018C0D2E
:101320009D1DAE1DBF1DCB2F88159905AA05CB09A4
:10133000C7FD25C084829582A682B782A6CF90E0A1
:1013400054CF109709F040C0108A118A128A138A6C
:10135000922B93A380E09ACF83A18071109709F01C
:101360003BC0108A118A128A138A836083A3848106
:101370009581A681B781840F951FA61FB71FC2E96B
:10138000D5E0D383C28384839583A683B7834087C4
:10139000518762877387041B150B260B370B048755
:1013A00015872687378771CF1296CD90DD90ED9007
:1013B000FC901597872F4C155D056E058F0987FFEB
:1013C00034C083E10E941D0712964D915D916D918D
:1013D0007C91159794604DCF12968D909D90AD9015
:1013E000BC901597876024013501C480D580E680C4
:1013F000F780408A518A628A738A83A38ECF1296BD
:101400004D905D906D907C9015978B2D8414950474
:10141000A604870987FDD5CF83A18071876053011A
:101420004201E7CF85E10E941D07C0712C2F292BB7
:10143000B701A60121CF0F931F93CF93DF93FC0138
:10144000808190919D01891770F590E0880F991F18
:10145000880F991FC0919B01D0919C01C80FD91F83
:1014600088819981892BF9F480913301909134011D
:10147000892BC9F48BE19AE09983888389E190E014
:101480000E9421088C019B838A8384E196E0F80105
:10149000938382838DE096E093878287DF91CF915B
:1014A0001F910F9108958BE00E941D07FC01809110
:1014B0007A0086FD07C0828D909100019817D1F0C7
:1014C0009F3F71F084819581A681B7818853984FA1
:1014D000AF4FBF4F84839583A683B78381E0089580
:1014E000809300018770806480937C0087ED8093F7
:1014F0007A00E8CF8FEF809300012091780030913F
:101500007900858D968D891760F181E0358B248B6C
:10151000858F891780F18689978928173907E8F11F
:10152000808D918D82179307C0F1138E1092260142
:1015300081E080939E0180899189A289B389408549
:10154000518562857385840F951FA61FB71F808BF9
:10155000918BA28BB38B84839583A683B78381E021
:10156000089544895589240F351F8F5F358B248B4F
:10157000858F891780F684819581A681B7814485FE
:10158000558566857785840F951FA61FB71F8483B1
:101590009583A683B78381E00895838D8F5F838FC2
:1015A000948D891718F2809128018111BECF8AE1AC
:1015B0000E941D078CE10E941D072F923F924F92BF
:1015C0005F926F927F928F929F92AF92BF92CF92D3
:1015D000DF92EF92FF920F931F93CF93DF9300D090
:1015E00000D00F92CDB7DEB7209199012983211544
:1015F000C1F00F900F900F900F900F90DF91CF914F
:101600001F910F91FF90EF90DF90CF90BF90AF9020
:101610009F908F907F906F905F904F903F902F9012
:10162000089581E0809399013E013CE1630E711CB5
:101630009091960180919501981780F010929501F4
:10164000109296010A8D1B8D0E5F1F4FF801849139
:10165000813608F424C110929901CBCF0A8D1B8DDD
:101660000E5F1F4FF8012491482F50E05D834C839B
:10167000280F3327331F213631050CF417C1291BDE
:1016800031092136310538F71092950160919601A4
:10169000861B8983E82EF12C70E06B5C7E4FA701DE
:1016A00085E391E00E942C2110929601598150937C
:1016B00095018091C10080628093C100FD82EC821F
:1016C000C7018B5C9E4F9B838A83F8018491082F0E
:1016D000863008F474C1AA81BB8112968550990B9B
:1016E0007D01E80EF91EEA8DFB8D33964491EA8D5B
:1016F000FB8D3496259135916901EA8DFB8D85919D
:1017000095918038910568F0AA81BB811396BC0140
:10171000660F672F661F770B71956068EA81FB8102
:1017200062838F778D935D0188248A94840E41159E
:1017300009F489C02F5F3F4F820E932E911C33C056
:101740009AEF980F923008F03DC1F301208131816A
:1017500017012A183B08032C000C44085508A9015E
:10176000330F660B770B241635064606570610F422
:10177000B201A101D5014D935D012301B4E04B0EEF
:10178000511CF301228133818A01B901863009F4A9
:10179000F8C0C5010E942321A00EB11E3201C81459
:1017A000D90409F450C0EA14FB0408F40BC1F60193
:1017B0008491FFEFCF1ADF0A853009F47DC008F06D
:1017C000BFCFD301823008F495C04D915D913D01AA
:1017D000833009F4DAC060E070E08A019B01005EAA
:1017E0001F4F2F4F3F4F003811052105310508F4D9
:1017F000C6C00052104F2F4F3F4F01151044210516
:10180000310568F0D5018A019B019EE03695279548
:10181000179507959A95D1F700680D935D01D5014D
:101820008A019B0187E036952795179507958A953C
:10183000D1F700680D934F77FD0141935F01C81404
:10184000D90409F0B0CF85012A813B81021B130B1B
:10185000602F0D5FEC81FD81EB5CFE4F008380917A
:101860000901AA81BB8111968C931197CD010E9429
:10187000C61C2A803B80200E311CF10133979193C6
:1018800081938EE780838981800F80939501809179
:10189000C10080628093C10010929901AACEA5E395
:1018A000B1E0BB83AA831D821C820FCF4B5C5E4FCD
:1018B0005B834A83898309CFD3012D913D913D01FB
:1018C000F5013196D9014C912F5F3F4F411107C06F
:1018D0000DC04193D9014D919D01411519F0EE15AF
:1018E000FF05B8F3AF014A195B094150D5014C938C
:1018F0005F0155CF4D915D916D917D913D018A01C3
:101900009B01005E1F4F2F4F3F4F003811052105EF
:101910003105A8F10052104F2F4F3F4F0115B0E491
:101920001B072105310508F47ACF1051284F3F4F8E
:1019300001151105E0E22E07310508F463CF2850A8
:101940003C4FD501011511052105304158F08A01A0
:101950009B01FCE13695279517950795FA95D1F7E8
:1019600000680D938A019B01E5E13695279517954F
:101970000795EA95D1F700680D935D0143CFD50136
:101980005ACFC5010E940D2107CF052E000C660B12
:10199000770B8A019B01005E1F4F2F4F3F4F00388E
:1019A00011052105310558F30052104F2F4F3F4FBD
:1019B000011510442105310508F024CF30CF6DEF1B
:1019C000680F48CF86E00E941D07CF93DF93CDB705
:1019D000DEB767970FB6F894DEBF0FBECDBF8FE8B6
:1019E00092E09093980180939701EFE8F7E064917B
:1019F000EDE8F7E0259135916170822F0E94EC1E91
:101A0000FFB6F8941092800001E000938100E4E8B2
:101A1000F0E01182108280819181C29690938900BA
:101A20008093880012E016BB80819181C2969093CA
:101A30008B0080938A0084E086BB81E091E00E9465
:101A4000270706BB10936F00FFBE88E19DE00FB62D
:101A5000F894A895809360000FBE9093600080E496
:101A6000809360001093C00083E090E09093C500E5
:101A70008093C40086E08093C20088EB8093C1000D
:101A800084E299E09F938F930E94DD0A0F900F905C
:101A9000F89486E792E00E94CC208C879D870C8585
:101AA0001D85012B09F445C1F8940E94F21CC62E35
:101AB000B72EA82E992EE2E2F1E08681811102C0B4
:101AC0001C85178382E291E022E0DC0116962C93BC
:101AD00016970AE011E00D931C93EAE1F1E04481CE
:101AE000558166817781D80114964D935D936D93EE
:101AF0007C931797DC011396FC93EE931297D80111
:101B0000ED93FC9382E191E0918380838091840046
:101B100090918500C296909389008093880026BB9F
:101B2000109299010E944E059FEFF12C30E021E1C7
:101B3000E0909D0100919B0110919C01E1E0E90F73
:101B4000F0E0EE0FFF1FEE0FFF1FE00FF11F892FD8
:101B5000B92D0AC04F0164E0860E911C608171812D
:101B60006E5D744171F1F4018F5F8E1598F39B2EB9
:101B70004F2D532F4115510559F1FA0163A16071A1
:101B80000488F589E02DDA0156968C917FB7F89498
:101B9000611599F06281862B82837FBFFA0163A170
:101BA000862F807164FD822FDA0193968C93939730
:101BB00090961C921E925F97BBCF62818095862380
:101BC000EBCF9B2E42815381982F41155105A9F6E9
:101BD000FF24FA94812CD12CE1E0EF0DF0E0EE0F20
:101BE000FF1FEE0FFF1FE00FF11F4F2D0AC09F01D7
:101BF0002C5F3F4F808191818B519A4009F459C3EA
:101C0000F9014F5F4E1598F3682C7D2C6114710417
:101C100001F1C3010E94FB04C30108960E94FB046A
:101C2000D3015496ED91FC91309761F0DF01019062
:101C3000F081E02D13961C921E9212971D921C9219
:101C40003097A1F7F301158A148A108E178A168A25
:101C5000C3CFFF24FA94E1E0EF0DF0E0EE0FFF1F99
:101C6000EE0FFF1FE00FF11F0AC09F012C5F3F4FD7
:101C7000808191818F57944109F462C3F901F394F3
:101C8000FE1498F3D0900001FF24FA9488248A94DB
:101C9000E1E0EF0DF0E0EE0FFF1FEE0FFF1FE00F92
:101CA000F11F0AC09F012C5F3F4F80819181885FA7
:101CB000934109F402C3F901F394FE1498F3D0920E
:101CC00000012FEF82EA97E0E1E0E20FF0E0EE0F93
:101CD000FF1FEE0FFF1FE00FF11F0AC0BF016C5F77
:101CE0007F4F408151814353544109F410C3FB019C
:101CF0002F5F2E1598F381E091E00E942707E2E222
:101D0000F1E081E08683789487811F928F939F9280
:101D1000AF92BF92CF9288E199E09F938F930E94F8
:101D2000DD0AEDB7FEB738960FB6F894FEBF0FBECA
:101D3000EDBF78940E94F21C69837A838B839C8325
:101D4000E2E22E2EE1E03E2ED10114968C91811517
:101D500009F4F4C10E94F21C49805A806B807C8097
:101D6000461A570A680A790AF894F10184818111A8
:101D70008CC278940E94F21C460E571E681E791E73
:101D800081E0D10114968C93EAE9F1E0808181151C
:101D900011F1EAE9F1E0108260919D0140919B010F
:101DA00050919C01FF24FA94E1E0EF0DF0E0EE0F7A
:101DB000FF1FEE0FFF1FE40FF51F0AC09F012C5FEE
:101DC0003F4F808191818B519A4009F420C2F901E3
:101DD000F394F61698F3AEE9B1E08C91811509F110
:101DE000AEE9B1E01C9260919D0180919B019091C0
:101DF0009C011FEFE1E0E10FF0E0EE0FFF1FEE0F9F
:101E0000FF1FE80FF91F0AC0AF014C5F5F4F208131
:101E10003181285F334109F4BCC1FA011F5F1617F5
:101E200098F3A89580919F01811529F080E4809313
:101E3000600010929F01A1E6B2E01C91111509F417
:101E400088C00091A00100FD21C0153008F481C0B8
:101E5000E1EAF1E020812987822F85508C3308F058
:101E600021C2B1808B2D807F803169F439851317B1
:101E700008F46FC0832F90E0FC01E056FE4F2081F4
:101E80002E3709F474C201600093A001412F50E085
:101E90006EE770E081EA91E00E9416218E879F87AD
:101EA0004E855F854115510541F00E7F0093A001DD
:101EB000CA01815A914011E0180F01FDF1C1026081
:101EC0000093A00186ED98E09F938F930E94DD0A16
:101ED0000F900F900FEF60E0A1E6B2E0FC90EF2CC6
:101EE000E11AF1120FC08FB7F894E1E6F2E09081A9
:101EF000F91611F18FBFA1E6B2E0FC90EF2CE11AC8
:101F0000F11689F3862F90E0EE2DE61BFF0BAF0153
:101F1000610F7727771F6F557E4F8F559E4F0E9419
:101F20002C21D10114961C926E2D8FB7F894E1E606
:101F3000F2E09081F912DECFE09261028FBF0130B2
:101F400041F486ED98E09F938F930E94DD0A0F90F5
:101F50000F900E94F21C69837A838B839C83698132
:101F60007A818B819C816419750986099709C090D3
:101F70007202D0907302E0907402F0907502BFEF8D
:101F8000CB1ADB0AEB0AFB0AC0927202D0927302F0
:101F9000E0927402F092750280906E0290906F024F
:101FA000A0907002B0907102860E971EA81EB91EF6
:101FB00080926E0290926F02A0927002B0927102B3
:101FC00061157105E1E08E07910508F0BCC04090F5
:101FD0006A0250906B0260906C0270906D029B01DF
:101FE000AC010E94A22061507F4F8F4F9F4F672FFF
:101FF000782F892F99278B019C01040D151D261D13
:10200000371D0D831E832F8338874D815E816F813D
:102010007885441555056605770528F46FEF6D83BF
:102020006E836F8368878D819E81AF81B885809331
:102030006A0290936B02A0936C02B0936D02409180
:1020400066025091670260916802709169025C5467
:102050006B437B4F8C8109811A812B813C81041752
:1020600015072607870B87FD6FCEBF93AF939F930E
:102070001D811F93BF92AF929F928F92FF92EF921A
:10208000DF92CF928CE099E09F938F930E94DD0ABC
:102090002DB73EB7225F3F4F0FB6F8943EBF0FBE3D
:1020A0002DBF8091660290916702A0916802B09165
:1020B000690249815A816B817C81481759076A07F7
:1020C0007B0798F48091620290916302A091640270
:1020D000B09165020196A11DB11D8093620290939B
:1020E0006302A0936402B093650269817A818B8157
:1020F0009C8160936602709367028093680290935C
:10210000690210926A0210926B0210926C02109295
:102110006D0210926E0210926F0210927002109275
:102120007102109272021092730210927402109255
:102130007502D10114968C9181110CCE49805A8080
:102140006B807C801DCE6115710510E181079105C2
:1021500008F095C040906A0250906B0260906C024B
:1021600070906D029B01AC0121503F4F4F4F5F4F6C
:10217000232F342F452F55270E94A2209B01AC010D
:10218000240D351D461D571D2D833E834F835887D3
:102190003CCF0280F381E02D309709F442CE358D9B
:1021A000268D321327CEF894858D968D891741F0B0
:1021B000789460919D0180919B0190919C011ACE31
:1021C0005489658990892189328943898F5F858FF8
:1021D00078946F935F934F933F932F939F931F92A6
:1021E0001F93E2EEF8E0FF93EF930E94DD0A2DB714
:1021F0003EB7265F3F4F0FB6F8943EBF0FBE2DBFD0
:1022000060919D0180919B0190919C01F3CD028191
:1022100013810115110509F4DECDD80156968C9174
:1022200082FFC2CD0E94F21C9B01482FF894F80156
:1022300057898689682F6B7F668B78949F934F931D
:102240003F932F931F925F9381701F928F931F92E2
:10225000FF9204EF18E01F930F930E94DD0A4DB721
:102260005EB7445F5F4F0FB6F8945EBF0FBE4DBFC1
:1022700060919D0140919B0150919C0195CD5FEF34
:102280005D835E835F835887CECE8FEF85838483A3
:1022900078940000F894F10184818111F9CF69CD1F
:1022A0000FEF19CE29852E3709F0EDCD11E00FEF94
:1022B00012CE62807380F42EA9CC0280F381E02DCF
:1022C000309709F4FCCC828DD81201C0D82C868DB1
:1022D000811509F4DDCCD09200018F5F858F808954
:1022E0009189A289B3894085518562857385840F60
:1022F000951FA61FB71F808B918BA28BB38B8483F6
:102300009583A683B783CF010E942707C1CC0280A3
:10231000F381E02D309709F4EECC47855089A085F4
:10232000B18532853115D9F04C9393838283128A1B
:10233000118AE0909D0100919B0110919C01C4CCF9
:1023400082819381009709F49DCCDC0195961C92C3
:102350001E92949760E088960E942F067CCC3FB72F
:10236000F894552711965C934E933FBFDECFAC0196
:1023700042565E4F7A0181569E4FDC018C91FA01E4
:1023800090816C01632F635081EA91E00E94C61C2A
:10239000C816D90609F077CD0D7F0093A001809172
:1023A0000901B81228C181E08B0D8F708061809384
:1023B000090103EA11E0F3EAEF16F1E0FF0609F084
:1023C00008F4FBC06DB77EB77B876A87D8012C9174
:1023D000822F90E0A8014F5F5F4F27FF0DC09695B9
:1023E000982F88279795879580789F73A8014E5FCF
:1023F0005F4FF8012181822B009709F4FEC0E4EDC4
:10240000F8E0259135918217930708F0F6C09C01FA
:10241000220F331F220F331F220F331F280F391FA4
:10242000F901EE56F84FE4910DB71EB764E0E69F50
:102430000019110911240FB6F8941EBF0FBE0DBF6D
:102440008DB79EB70196F901EC56F84F6491F901EA
:10245000EB56F84FA591B591FD01AFEFA60F6115B1
:1024600009F4C7C0BF016F5F7F4F6B01CA0ED11C5B
:10247000DC01FD8BEC8B28C0673009F0B7C0FA0196
:1024800081908F01080D111DE016F10608F4AEC011
:10249000912CA12CB12C8D929D92AD92BC92139750
:1024A000BD01685F7F4F4F01A12CB12C14968D9216
:1024B0009D92AD92BC9217974C895D894C155D0534
:1024C00009F45EC0A801DB01E416F50608F48EC02D
:1024D000EC89FD8964913196FD8BEC8B653060F65B
:1024E000BD016C5F7F4FFA0151918F01452F4F77EE
:1024F000842E912CA12CB12C452F4076403631F4FE
:10250000F0EE8F2A99249A94A92CBA2C57FF2DC04B
:102510004C895D895F8B4E8BF80140810F5F1F4FA7
:10252000880C991CAA1CBB1C880C991CAA1CBB1CDF
:10253000880C991CAA1CBB1C880C991CAA1CBB1CCF
:10254000880C991CAA1CBB1C880C991CAA1CBB1CBF
:10255000880C991CAA1CBB1C542F5F77852A47FD49
:10256000DBCF4E895F895D8B4C8B8D929D92AD92B6
:10257000BC9213974C895D894C155D0509F0A2CF7B
:10258000D10116964C91411531F0F901ED56F84FF5
:10259000E491E0FF15C02956384FF9012591359196
:1025A000F90109952A853B850FB6F8943EBF0FBE09
:1025B0002DBF0E151F0508F405CF198501E08BCC42
:1025C000809129011F928F938EE199E09F938F93C1
:1025D0000E94DD0A0F900F900F900F90EA85FB8507
:1025E0000FB6F894FEBF0FBEEDBFE3CF87E00E94A9
:1025F0001D078A01C5CF198565CC85E00E941D079E
:1026000080913301909134019F938F9321E0309119
:102610002801311101C020E01F922F9320912D013C
:102620002F9320912C012F9320912B012F932091F8
:102630002A012F9321E0892B09F420E01F922F9388
:102640008AEF98E09F938F930E94DD0A8DB79EB723
:102650000C960FB6F8949EBF0FBE8DBF08950E94D2
:10266000F21C9F938F937F936F9380E099E09F93E9
:102670008F930E94DD0A0F900F900F900F900F9094
:102680000F900895CF92DF92EF92FF920E94F21C7A
:102690006B017C01FF928F93DF926F9381E090E05A
:1026A000A0E0B0E04091660250916702609168023C
:1026B00070916902C416D506E606F70618F080E0A8
:1026C00090E0DC01409162025091630260916402EB
:1026D00070916502840F951FA61FB71FBF93AF931C
:1026E0009F938F9386E099E09F938F930E94DD0ADA
:1026F0008DB79EB70A960FB6F8949EBF0FBE8DBFDA
:10270000FF90EF90DF90CF900895CF92DF92EF92FD
:10271000FF92CF93DF93EC0188819981AA81BB81DD
:10272000E9E8F7E045915591659175918417950712
:10273000A607B70778F42C816C017D01C20ED11C6D
:10274000E11CF11C4C155D056E057F0528F5481B45
:1027500050E002C040E050E09C012A523F4F3F93BE
:102760002F935F934F93BF93AF939F938F9382E188
:1027700099E09F938F930E94DD0A8DB79EB70A96CA
:102780000FB6F8949EBF0FBE8DBFDF91CF91FF9023
:10279000EF90DF90CF900895422F50E0DDCFCF93A0
:1027A000DF93282FCA0130919D012317F0F430E008
:1027B000220F331F220F331FC0919B01D0919C0128
:1027C000C20FD31F28813981232B79F42091330143
:1027D00030913401232B49F4688379830E942108C6
:1027E0008A839B83DF91CF9108958BE00E941D0720
:1027F0000F931F93CF93DF93DC0114968C91149762
:10280000C0E0D0E0FE01EC53FF4FE4918E1739F0A9
:102810002196C830D105B1F782E20E941D0787E9F1
:1028200080937A0080917E0021E030E00C2E01C080
:10283000220F0A94EAF7822B80937E004FE150E04A
:1028400068EF73E18C910E94CF138C0186E59AE0CA
:10285000F80193838283C28F81E0858FDF91CF91CE
:102860001F910F910895DF92EF92FF920F931F93A4
:10287000CF93DF938C01FC01408551856285738580
:10288000248584810E94691FD62EE72EF82E45E10B
:1028900050E063E374E1F80180810E94CF13EC0102
:1028A000D886E986FA86F80180899189988B8F8786
:1028B00084899589A689B7898B879C87AD87BE87D0
:1028C00082EA97E09B838A831C8A1B8A1A8A198A68
:1028D0008091330190913401892B79F480913001FA
:1028E000883018F488E080933001DF91CF911F91F8
:1028F0000F91FF90EF90DF9008950E9472080F9360
:102900001F93CF93DF938C014DE250E06FE774E1AA
:10291000FC0180810E94CF13EC0161E0F801848505
:1029200018160CF060E0660F660F6CA7F801848142
:102930000E94EC1E6A8F7B8F8C8F60E0F80180858F
:102940000E94EC1E6D8F7E8F8F8F80E090E0A0E064
:10295000B0EC88A399A3AAA3BBA3F80180899189AD
:10296000A289B3898E8B9F8BA88FB98F1FA21EA2BD
:102970001DA21CA22091330130913401232BE1F4DC
:10298000209130012B3018F42BE0209330018997EF
:10299000A105B10548F088E39BE19B838A83DF9121
:1029A000CF911F910F9108958CA580618CA7DF9125
:1029B000CF911F910F9108950E947208DF92EF92BC
:1029C000FF920F931F93CF93DF938C0161E0FC0183
:1029D00080859185A285B385892B8A2B8B2B09F461
:1029E00060E0F80184810E94EC1ED62EE72EF82EBE
:1029F00044E250E06EED74E1F80180810E94CF1353
:102A0000EC01DC8AED8AFE8A81E0F8014485558577
:102A100066857785452B462B472B09F480E0829508
:102A2000807F91E0F8014085518562857385452B53
:102A3000462B472B09F490E0892B8BA3F801808962
:102A40009189A289B3898F8B988FA98FBA8F1AA287
:102A500019A218A21F8E8091330190913401892B05
:102A600079F4809130018A3018F48AE08093300143
:102A7000DF91CF911F910F91FF90EF90DF9008951C
:102A80000E9472080F931F93CF93DF938C014DE147
:102A900050E062E475E1FC0180810E94CF13EC01FB
:102AA000F801408584818832C0F547FD36C0E82FA3
:102AB000E695E695E695F0E0EE0FFF1FE453FF4F35
:102AC000A591B591109749F1877021E030E0B901E7
:102AD00002C0660F771F8A95E2F7CB015FB7F894C3
:102AE000362F309512962C9112974115A1F0262B76
:102AF00012962C93129711969C91119793231196ED
:102B00009C9311975FBFB987A8878A87DF91CF9180
:102B10001F910F9108952323EBCF80E20E941D07A0
:102B20008CE00E941D07DC018C9190919D0189171A
:102B300020F590E0880F991F880F991FE0919B0165
:102B4000F0919C01E80FF91F808191818E5D944185
:102B5000A1F40280F381E02DF894878D90A1892B58
:102B600071F414968D919D910D90BC91A02D838F41
:102B7000948FA58FB68F789408950E94901584E164
:102B80000E941D07CF92DF92EF92FF92CF93DF93C7
:102B9000DC018C9190919D01891708F08CC090E028
:102BA000880F991F880F991FE0919B01F0919C015C
:102BB000E80FF91F808191818E5D944109F07BC0FF
:102BC000C281D3818FB7F894E0912E01F0912F014B
:102BD000309709F472C02081318130932F01209306
:102BE0002E018FBF1496CD90DD90ED90FC9017973D
:102BF000C282D382E482F58218968D919D910D90C8
:102C0000BC91A02D86839783A087B187F894118209
:102C100010828F8D98A1892B71F0A9A1BAA1ED9393
:102C2000FC93FAA3E9A37894DF91CF91FF90EF9002
:102C3000DF90CF900895FAA3E9A3F8A3EF8F8BA1BB
:102C400082FD2BC0C88AD98AEA8AFB8A982F9460B1
:102C50009BA381FD16C0CE010E94FB04CC82DD82C5
:102C6000EE82FF828DEC98E09B838A83CE010E94E6
:102C700027077894DF91CF91FF90EF90DF90CF906E
:102C800008954C815D816E817F81872F4C155D0594
:102C90006E058F0987FDEDCFDECF488959896A8996
:102CA0007B89972F4C155D056E059F0997FFCACF4D
:102CB00083E10E941D070E9490150E946F08CF9229
:102CC000DF92EF92FF920F931F93CF93DF938C01CC
:102CD000FC01808190919D01891708F074C090E0FB
:102CE000880F991F880F991FE0919B01F0919C011B
:102CF000E80FF91F808191818E5D944109F063C0D6
:102D0000C281D381CE010E94FB048F8D98A1892BB3
:102D100009F05BC0F80194811BA101E0911569F1F4
:102D2000EC89FD898E892FB7F8943281911123C0E7
:102D30008095832382832FBF107121E0911120E0C1
:102D400014FB882780F991E08927281741F08F89A3
:102D5000988DA98DBA8D892B8A2B8B2B81F4802F8E
:102D6000812B8BA3DF91CF911F910F91FF90EF905B
:102D7000DF90CF900895832BDDCF00E0D1CF0E946C
:102D8000F21CCF88D88CE98CFA8CC60ED71EE81EB0
:102D9000F91EC88AD98AEA8AFB8ACC82DD82EE8251
:102DA000FF828DEC98E09B838A83102B14601BA319
:102DB000CE01DF91CF911F910F91FF90EF90DF90A7
:102DC000CF900C9427070E94901582E10E941D0766
:102DD0000F931F93CF93DF938C01FC01808190911F
:102DE0009D01891708F053C090E0880F991F880F44
:102DF000991FE0919B01F0919C01E80FF91F8081E0
:102E000091818B519A4009F042C0C281D381F894DC
:102E1000CE010E94FB04CE0108960E94FB04EC89BF
:102E2000FD89309761F0DF010190F081E02D13966C
:102E30001C921E9212971D921C923097A1F71D8A28
:102E40001C8A188E1F8A81E08E8BF80184819581FF
:102E5000A681B7818C839D83AE83BF838085918556
:102E6000A285B385888B998BAA8BBB8B892B8A2BE8
:102E70008B2B49F4F8018485888F7894DF91CF916A
:102E80001F910F910895CE010E942707F3CF0E9452
:102E90009015EF92FF920F931F93CF93DF93EC0166
:102EA000888190919D01891798F590E0880F991F6E
:102EB000880F991FE0919B01F0919C01E80FF91F89
:102EC000808191818B519A4019F502811381F89488
:102ED000F801868980FD08C07894DF91CF911F9119
:102EE0000F91FF90EF9008957801F8E0EF0EF11C3C
:102EF000C7010E94FB048C819D81AE81BF81F801D6
:102F000084879587A687B787C7010E942707E4CFE4
:102F10000E9490151F93CF93DF93DC011C91809149
:102F20009D01181708F03FC0812F90E0880F991F6E
:102F3000880F991FE0919B01F0919C01E80FF91F08
:102F4000808191818B519A4071F5C281D381F8942F
:102F500014966C91CE010E94D805CE010E94FB040C
:102F6000CE0108960E94FB041E8A8F8978941F92D6
:102F70001F921F921F921F928F931F921F921F9258
:102F80001F9384EF98E09F938F930E94DD0A8DB783
:102F90009EB70C960FB6F8949EBF0FBE8DBFDF9103
:102FA000CF911F9108950E949015DC018C91909112
:102FB0009D01891738F590E0880F991F880F991F98
:102FC000E0919B01F0919C01E80FF91F80819181B4
:102FD0008F579441B9F40280F381E02D81E014967B
:102FE0004D915D916D917C911797452B462B472B09
:102FF00009F480E0880FF89494A59D7F892B84A71D
:10300000789408950E949015DC018C9190919D0117
:10301000891778F590E0880F991F880F991FE09124
:103020009B01F0919C01E80FF91F808191818F57DE
:103030009441F9F40280F381E02D14968D919D91D5
:103040000D90BC91A02DF8944685578560897189B3
:10305000452B462B472B79F484839583A683B7832E
:10306000828B938BA48BB58B84A5877F84A7789460
:1030700008950E94901587E10E941D07FC012081A0
:1030800080919D01281708F048C0822F90E0880F9A
:10309000991F880F991FE0919B01F0919C01E80F07
:1030A000F91F808191818F579441B9F50280F38196
:1030B000E02DF89480A191A1A2A1B3A146855785E6
:1030C0006089718934A534FD04C07695679557955C
:1030D0004795841B950BA60BB70B7894B7FF07C0D9
:1030E000B095A095909581959F4FAF4FBF4FB0542D
:1030F000BF93AF939F938F931F922F938EEE98E081
:103100009F938F930E94DD0A8DB79EB708960FB6E6
:10311000F8949EBF0FBE8DBF08950E949015CF9367
:10312000DF93EC01E88190919D01E91708F042C01E
:1031300020919B0130919C01F0E0EE0FFF1FEE0FFC
:10314000FF1FE20FF31F408151814F57544191F50A
:10315000A281B3818C81891768F590E0880F991F4F
:10316000880F991FF901E80FF91F808191818B5118
:103170009A4001F50280F381E02D9D01285D3F4FCB
:103180008FB7F8949A964D915C919B97452BA1F43B
:103190004FE256E09B965C934E939A9744895589EB
:1031A00099965C934E939897358B248B8FBFDF91C4
:1031B000CF9108950E94901586E10E941D07DF922D
:1031C000EF92FF920F931F93CF93DF937C01DC016B
:1031D000EC91D0909D01ED1508F072C000919B011B
:1031E00010919C01F0E0EE0FFF1FEE0FFF1FE00FAC
:1031F000F11F808191818254954109F061C0C281A3
:10320000D381CE010E94FB04F70184819581A681C0
:10321000B7818C839D83AE83BF8380859185A28592
:10322000B3858F87988BA98BBA8B84858A8F8115FC
:10323000E1F140895189628973894B875C876D8789
:103240007E8728EE36E03B832A838B8F848995899D
:10325000A689B789892B8A2B8B2B29F582E0898F48
:10326000F701808D8D1560F590E0880F991F880F0C
:10327000991FF801E80FF91F808191818B519A40C5
:10328000F9F482819381988F8F8BD7015C968C9112
:103290008C8FCE01DF91CF911F910F91FF90EF9016
:1032A000DF900C94270783E0DACF188E1F8A198EDF
:1032B000DF91CF911F910F91FF90EF90DF900895D4
:1032C0000E949015FC01208180919D01281708F033
:1032D0003FC0822F90E0880F991F880F991FE091BF
:1032E0009B01F0919C01E80FF91F8081918182542C
:1032F000954171F50280F381E02DF894818D438929
:103300005489658976897894A085B1859C913285A8
:10331000932331E0911101C030E01F923F937F93DE
:103320006F935F934F93869581701F928F931F9237
:103330002F9388EE98E09F938F930E94DD0A8DB7BC
:103340009EB70C960FB6F8949EBF0FBE8DBF089522
:103350000E9490150F931F93CF93DF938C01FC0174
:10336000808190919D01891708F058C090E0880FE6
:10337000991F880F991FE0919B01F0919C01E80F24
:10338000F91F80819181885F934109F047C0C28114
:10339000D381CE010E94FB04909100018A8D981385
:1033A00003C08FEF80930001F80184819581A6818D
:1033B000B781888B998BAA8BBB8B8C839D83AE83C3
:1033C000BF8380859185A285B3858C879D87AE87D5
:1033D000BF8784858E8F91E0980F9D8F408951899A
:1033E00062897389488759876A877B8724893589E9
:1033F0003F8B2E8B208D318D398F288F948D9C8F14
:10340000811105C0DF91CF911F910F910895CE01D9
:10341000DF91CF911F910F910C9427070E94901577
:103420000F931F93CF93DF93FC01808190919D01B7
:10343000891708F07DC090E0880F991F880F991FA9
:10344000A0919B01B0919C01A80FB91F8D919C91F7
:1034500011978353944109F06BC012960D911C9102
:103460008FB7F894C0912E01D0912F01209709F4C5
:1034700061C02881398130932F0120932E018FBFA5
:1034800084819581A681B7818A839B83AC83BD8328
:10349000808591859F838E83F89419821882D80144
:1034A00051968D919C915297892B81F05396ED9175
:1034B000FC915497D183C0835496DC93CE93539759
:1034C0007894DF91CF911F910F910895F801D48BDB
:1034D000C38BD28BC18B7894C8010E94FB048A8174
:1034E0009B81AC81BD81F801228133812A5D3A4004
:1034F00081F022EA37E0F8013383228384839583C5
:10350000A683B783C801DF91CF911F910F910C94CF
:103510002707F8014481558166817781272F481755
:1035200059076A072B0B27FFE4CF8BE10E941D0789
:103530000E9490150E946F08CF92DF92EF92FF9247
:103540000F931F93CF93DF93FC01A4A1B5A1109714
:1035500071F416861786108A118A80E0DF91CF9168
:103560001F910F91FF90EF90DF90CF9008958D9174
:103570009C91119795A384A316968D919C91179772
:103580009587848712960D911D912D913C911597E9
:10359000AC01092E000C660B770B400F511F621F08
:1035A000731F4087518762877387C4A518964D9112
:1035B0005C91199760E070E0C4FF13C0C480D580AF
:1035C000E680F7800C0D1D1D2E1D3F1D0483158305
:1035D00026833783892BE9F5CF7DC4A78A019B0118
:1035E00016C0C288D388E488F5880C0D1D1D2E1DD9
:1035F0003F1D028B138B248B358B0483158326830D
:1036000037838A019B01000F111F221F331F06877A
:103610001787208B318B00A111A122A133A11A960B
:103620008C911A9780FD17C0400F511F621F731FA6
:1036300040A351A362A373A380912E0190912F0107
:1036400011969C938E93B0932F01A0932E0181E04D
:1036500085CFC062C2CF401B510B620B730B40A3DE
:1036600051A362A373A3C58DD68D878D8883E4CFC4
:10367000CF92DF92EF92FF920F931F93CF93DF933E
:10368000EC01EA8DFB8D8C8D80830E94F21C0E89EB
:103690001F89288D398D6B017C01C00ED11EE21E61
:1036A000F31E8E859F85A889B9890197A109B10963
:1036B0008E879F87A88BB98B80FF0EC0CC82DD825E
:1036C000EE82FF8281E0DF91CF911F910F91FF90F9
:1036D000EF90DF90CF900895892B8A2B8B2B51F19F
:1036E000088519852A853B858A899B89AC89BD898E
:1036F000800F911FA21FB31F8A8B9B8BAC8BBD8B3E
:103700004C855D85052E000C660B770B400F511F15
:10371000621F731F488759876A877B872B2F8C15F9
:103720009D05AE052F0927FDC9CF8C839D83AE83F0
:10373000BF83C8CFCE010E949C1A811509F4C3CF64
:103740008C819D81AE81BF812B2F8C159D05AE058F
:103750002F0927FFB7CF8C199D09AE09BF09803803
:10376000914CAF4FBF4F0CF0A9CF89E10E941D07CC
:10377000CF93DF93DC018C9190919D01891708F024
:1037800097C090E0880F991F880F991FE0919B01C7
:10379000F0919C01E80FF91F808191818F5794412E
:1037A00009F086C0C281D3818FB7F894E0912E01D1
:1037B000F0912F01309709F480C02081318130933E
:1037C0002F0120932E018FBF14964D915D916D9125
:1037D0007C911797428353836483758318968D91E8
:1037E0009C91199791878087892B09F463C01C9657
:1037F0008D919C91978386831286F8948CA5282FAF
:10380000217081FB992790F9291729F091E08927E8
:103810009285916092874E855F8568897989452B6D
:10382000462B472B39F583FF0EC080912E019091D6
:103830002F0191838083F0932F01E0932E017894E0
:10384000DF91CF9108958CA7118210828CA19DA148
:10385000892B09F1AEA1BFA1ED93FC93FFA3EEA3C9
:10386000CE010E949C1ACE010E9427077894DF9116
:10387000CF9108958CA7118210828CA19DA1892BD4
:1038800079F0AEA1BFA1ED93FC93FFA3EEA37894D2
:10389000DF91CF910895FFA3EEA3FDA3ECA3E0CFAA
:1038A000FFA3EEA3FDA3ECA37894DF91CF9108953D
:1038B0000E94901588E10E941D070E946F08B09B2E
:1038C00017C081E086BB80918D0290918E02019697
:1038D00090938E0280938D0220E030E830930601B1
:1038E00020930501909308018093070181E00895DA
:1038F00080918D0290918E02019620E030E0EECF13
:10390000F89488E198E00FB6F894A8958093600049
:103910000FBE90936000FFCFCF93DF93FC018081B7
:1039200090919D01891768F590E0880F991F880F85
:10393000991FA0919B01B0919C01A80FB91F8D9177
:103940009C91119784529F41E1F41296CD91DC91A4
:1039500084819581A681B78140856485758597FDB1
:1039600012C050E09A01280F391FED85FE85E2173D
:10397000F30748F00F968C0F9D1FDF91CF910C94A9
:1039800023210E9490158DE10E941D079C018FEF5D
:10399000860F611509F1682F70E06F5F7F4F620F2E
:1039A000731F8FEF9FEFF9012F5F3F4F40818427F7
:1039B000082E8295807F8025092E982F82958F7002
:1039C0000826869598278927880F880F880F8025D5
:1039D0002617370741F708958FEF9FEF08957894E2
:1039E0000E94E50C2FB7F8946091840070918500D7
:1039F00080918D0290918E02B09902C02FBF0895E0
:103A00002FBF7F3FE1F3019608956F927F928F92CF
:103A10009F92AF92BF92CF92DF92EF92FF921F934D
:103A2000CF93DF93DC011C9180919D01181708F062
:103A3000A9C0812F90E0880F991F880F991FE091EE
:103A40009B01F0919C01E80FF91F808191818452C4
:103A50009F4109F097C062807380E3018D809E8052
:103A6000AF80B884C984DA84EB84FC840E94F21CA1
:103A7000681979098A099B096C157D058E059F05D2
:103A8000A8F37301DFE0ED0EF11CF301C584D684C9
:103A90000190F081E02DD30112962C911297409164
:103AA00084005091850013960D90BC91A02DC114F7
:103AB000D104B9F1CFE0CC0ED11CC60CD71CE70164
:103AC0008881DFEFED1AFD0A98E012C0F89460914A
:103AD000840070918500208320837894EB01C41BBF
:103AE000D50BCA17DB0708F5880FAB019A95B1F023
:103AF00087FFECCFF894609184007091850020835B
:103B00007894EB01C41BD50BCA17DB0770F4880F40
:103B1000F89420837894AB019A9551F7EC14FD0446
:103B200071F60E94F21C21E00AC08FB7F8949281CE
:103B30002095292322838FBF0E94F21C20E0F301ED
:103B400065837683878390871F922F931F921F939D
:103B50008CED98E09F938F930E94DD0A0F900F9059
:103B60000F900F900F900F90DF91CF911F91FF90CA
:103B7000EF90DF90CF90BF90AF909F908F907F900D
:103B80006F9008950E9490151F920F920FB60F929A
:103B90001124CF92DF92EF92FF920F931F932F93F6
:103BA0003F934F935F936F937F938F939F93AF93C5
:103BB000BF93CF93DF93EF93FF930CC0809184006A
:103BC000909185008E199F0997FD7FC07894B299D6
:103BD0009DC0F894C0912201D0912301EA81FB811C
:103BE000309709F0B5C00A8D1B8D2C8DF80120830C
:103BF0008E859F85019709F4C6C09F878E87C884EC
:103C0000D984EA84FB844C815D816E817F814C0D77
:103C10005D1D6E1D7F1D4C835D836E837F832083BE
:103C20008CA585FF0EC08C859D85092E000CAA0BE6
:103C3000BB0B8C0D9D1DAE1DBF1D88879987AA8764
:103C4000BB877A01E881F98104811581268137815A
:103C5000972F872F401751076207830B87FDAECF41
:103C60007801F0932301E0932201A0912401B09107
:103C7000250114960D911D912D913C911797872F39
:103C8000401751076207830B87FFFD01DF01019099
:103C9000F081E02D0481158126813781892F40171D
:103CA00051076207830B87FFF1CFF983E883CD9338
:103CB000DC93D0932501C0932401809184009091DE
:103CC00085008E199F0997FF81CF863A9F4F0CF090
:103CD0007EC0F0928900E0928800FF91EF91DF9121
:103CE000CF91BF91AF919F918F917F916F915F9194
:103CF0004F913F912F911F910F91FF90EF90DF9087
:103D0000CF900F900FBE0F901F901895F894809150
:103D10008400909185009701281B390B2038314C85
:103D20000CF44EC02091270127FF3EC020912601B0
:103D3000209327019C01205C304E30938B00209310
:103D40008A0024E026BB909389008093880036CFB8
:103D5000CE0109954C815D816E817F81811171CF8A
:103D6000E881F9814481558166817781F09323014F
:103D7000E09322018091240190912501C817D90771
:103D800069F07A011BCFCE010E949C1A9C8DF8012C
:103D900090834C815D816E817F81E0CFF09325011E
:103DA000E09324017A010ACF9C012854344F3093C8
:103DB0008B0020938A0024E026BB93957C0189CF59
:103DC000209128012111AECF8FE10E941D07789428
:103DD000B2999CCFF894F2CE883298F5E82FE69508
:103DE000E695E695F0E0EE0FFF1FE453FF4FA59137
:103DF000B591109731F1877021E030E0A90102C040
:103E0000440F551F8A95E2F7CA013FB7F894611134
:103E100013C012964C911297282F209524231296A6
:103E20002C93129711962C911197282B11962C9365
:103E300011973FBFBD01089512962C911297242B24
:103E4000EECF81E20E941D078F929F92AF92BF92A8
:103E5000DF92EF92FF920F931F93CF93DF938C012A
:103E600060E0FC0184810E94EC1ED62EE72EF82E25
:103E7000F80180849184A284B38497FC27C0A401B4
:103E8000415F5F4F64E27FE180810E94CF13EC01CC
:103E9000D882E982FA829E868D86F801848595858E
:103EA0009C838B8380899189A289B38989879A872A
:103EB000AB87BC87DF91CF911F910F91FF90EF905F
:103EC000DF90BF90AF909F908F9008958EE10E94F9
:103ED0001D07CF92DF92EF92FF921F93CF93DF9354
:103EE0006A017B014AE259E0FA019491981749F07E
:103EF000475F5F4FF9E040365F07B1F789E20E9404
:103F00001D073896949191FF68C030E4C3163FEBCB
:103F1000D306E104F10408F084C0C0EACC16CFE572
:103F2000DC06E104F10408F0A6C0D8EDCD16D7E216
:103F3000DD06E104F10408F072C0E7EFCE16E8E018
:103F4000DE06E104F10408F05FC011E0FA013396E7
:103F5000A591B591FA013596C591D591FA0137969B
:103F60003491E82FE695E695E695F0E0EE0FFF1F19
:103F7000E453FF4F659175918770E1E0F0E07F01B8
:103F800001C0EE0C8A95EAF7FA01319645915591F8
:103F9000892F8170A038B10509F474C0DFB6F89498
:103FA00098819770911511F0191369C018838115C4
:103FB00069F1FA0120839C91932B91609C93FB0102
:103FC00091819E299183DFBEBA01DF91CF911F912C
:103FD000FF90EF90DF90CF900895D0ECCD16DEE308
:103FE000DD06D1E0ED06F104B8F5E8EBCE16E7E426
:103FF000DE06E104F10498F4F7EFCF16F8E0DF06EF
:10400000E104F10408F4A1CF12E0A0CF9FB7F89427
:10401000E22FF0E0EA01F983E8839FBFCCCF13E001
:1040200095CFF0E8CF16FEE7DF06F1E0EF06F104EA
:1040300020F130E8C31A3EE7D30A31E0E30AF10881
:1040400016E0C0E8CC16CCE7DC06C3E0EC06F104D1
:1040500008F47CCF17E07ACF30ECC31A3EE3D30AE2
:1040600031E0E30AF108C0E4CC16CCEBDC06C3E097
:10407000EC06F10410F414E069CF15E067CF87E295
:104080000E941D0788E20E941D07FC0144815581A2
:1040900066817781208580810C94691F1F920F9221
:1040A0000FB60F92112481E080939F018AE20E9453
:1040B0001D071F921FB61F9211248F939F93EF939A
:1040C000FF938091C6008E37A1F0E0916102E03C41
:1040D00040F491E09E0F90936102F0E0EF55FE4FA7
:1040E0008083FF91EF919F918F911F901FBE1F9032
:1040F000189510922601E9CF8F938FB78F93EF9386
:10410000FF93E091960180919501E81780F481E09A
:104110008E0F80939601F0E0EB5CFE4F80818093E0
:10412000C600FF91EF918F918FBF8F91189580916D
:10413000C1008F7D8093C100FF91EF918F918FBF60
:104140008F911895DB018F939F930E94B220BF91AE
:10415000AF91A29F800D911DA39F900DB29F900DD6
:10416000112408950E94BD20A59F900DB49F900D2D
:10417000A49F800D911D11240895A29FB001B39FAB
:10418000C001A39F700D811D1124911DB29F700D60
:10419000811D1124911D0895DC012D923D924D92B7
:1041A0005D926D927D928D929D92AD92BD92CD92D7
:1041B000DD92ED92FD920D931D93CD93DD93FF91D2
:1041C000EF918DB78D938EB78D938FB78D93ED93C0
:1041D000FD93882799270994DC01CB018130910553
:1041E000811D2D903D904D905D906D907D908D90B6
:1041F0009D90AD90BD90CD90DD90ED90FD900D9196
:104200001D91CD91DD91ED91FD910D90F894FEBF42
:104210000FBEEDBFED91FD910994FB01DC0102C0E1
:1042200005900D9241505040D8F70895FC0141503F
:10423000504030F001900616D1F73197CF01089524
:10424000882799270895FB01DC0102C001900D9297
:1042500041505040D8F708956817790768F4FB017A
:10426000DC01E40FF51FA40FB51F02C002900E92EF
:1042700041505040D8F708950C942321DC0101C02F
:0E4280006D9341505040E0F70895F894FFCF41
:10428E00FF00005F1C00800000100000F904000019
:10429E00000000002407000000801201DB04000073
:0A42AE0000001A011A0100000000D0
:00000001FF
